:1000000012C02BC02AC029C028C027C026C025C0C6
:1000100024C024C022C021C020C01FC01EC01DC0DB
:100020001CC01BC01AC011241FBECFE5D4E0DEBF28
:10003000CDBF10E0A0E6B0E0EEE2F9E002C005902E
:100040000D92A236B107D9F710E0A2E6B0E001C0E8
:100050001D92A836B107E1F76EC1D2CF1F920F9261
:100060000FB60F9211242F938F939F9381E982BF34
:100070008091630090916400019690936400809356
:1000800063008091630090916400883F910508F4BB
:100090008EC080916300909164008B3F910508F0C1
:1000A00086C015BA0000000000000000000000003B
:1000B0000000000000000000000000000000000040
:1000C0000000000000000000000000000000000030
:1000D0000000000000000000000000000000000020
:1000E0000000000000000000000000000000000010
:1000F0000000000000000000000000000000000000
:1001000000000000000000000000000000000000EF
:1001100000000000000000000000000000000000DF
:100120000000000087E085BB000000000000000028
:1001300000000000000000000000000000000000BF
:10014000000000000000000085BB0000000000006F
:10015000000000000000000000000000000000009F
:10016000000000000000000000000000000000008F
:10017000000000000000000000000000000000007F
:100180000000000000000000000085BB000000002F
:10019000000000000000000000000000000000005F
:1001A00000000000000000000000000076C087E0B2
:1001B00085BB0000000000000000000000000000FF
:1001C000000000000000000000000000000000002F
:1001D000000000000000000000000000000000001F
:1001E000000000000000000000000000000000000F
:1001F00000000000000000000000000000000000FF
:1002000000000000000000000000000000000000EE
:1002100000000000000000000000000000000000DE
:1002200000000000000000000000000000000000CE
:10023000000015BA000000000000000000000000EF
:1002400000000000000000000000000000000000AE
:100250000000000086E085BB0000000000000000F8
:10026000000000000000000000000000000000008E
:10027000000000000000000000000000000000007E
:10028000000000000000000000000000000000006E
:10029000000000000000000015BA809163009091FA
:1002A00064008750914031F481E090E090936400C5
:1002B0008093630080916300909164008093650057
:1002C000809165008E3160F0809165008E51809341
:1002D000650080916500869586958695809365007A
:1002E00081E0809362009F918F912F910F900FBEBC
:1002F0000F901F901895882311F08150F1F7089501
:10030000AA27BB27072E7AE0880F991FAA1FBB1FB9
:100310007A95D1F7702D0097A105B10529F000005D
:100320000197A109B109D9F708959C01892F99274F
:100330008BBD2ABD0895CFE9D0E0DEBFCDBF22241A
:10034000322C422D442455248D9A91E099BF83E8A4
:1003500082BF82E083BF80E28BBD2ABC8FB5806400
:100360008FBDB99A8EB589608EBD93BDBB9A89E168
:1003700085BD84B3876084BBA8E1B0E0BE016F5F38
:100380007F4F6624242F3327862D99278A9FF001DB
:100390008B9FF00D9A9FF00D1124CF01860F971FB0
:1003A000FC01E20FF31F10826394F7E2F61560F789
:1003B0004F5F483130F378948E010F5F1F4F80916B
:1003C0006200882309F460C080916300909164000A
:1003D0008E3D910509F058C0339423E0322209F094
:1003E00051C092B380E2892782BB2394822D992742
:1003F000489EF001499EF00D589EF00D11242F01EA
:100400000894411C511CC20190DF6394432D852D3B
:1004100099275C0168E170E076D2892B99F10F2E63
:10042000F8E27F2EF02D0F2EF8E1CF2EDD24F02DF7
:10043000EE24FF24E394EC0EFD1E0F2EF5E08F2E2C
:100440009924F02D862D672D52D2892F99278C9DC6
:1004500090018D9D300D9C9D300D1124C9018E0D94
:100460009F1DFC01E40FF11DC201B4014CD28F5F4E
:1004700080834F5F242F3327C501B60144D228174C
:10048000390700F31092620080916200882309F41A
:1004900026C280916300909164004F9708F41FC2B8
:1004A00080916300909164008C3D910508F017C223
:1004B00080916500F801E80FF11D808185BB000087
:1004C00000000000000080916500F801E80FF11DB8
:1004D000808D85BB00000000000000008091650059
:1004E000F801E80FF11D80A985BB000000000000A5
:1004F000000080916500F801E80FF11DE85BFF4FF7
:10050000808185BB00000000000000008091650034
:100510009801280F311DF901E05AFF4F808185BBFA
:10052000000000000000000080916500F801E80F65
:10053000F11DE858FF4F808185BB000000000000DE
:100540000000809165009801280F311DF901E057E6
:10055000FF4F808185BB00000000000000008091FB
:100560006500F801E80FF11DE855FF4F808185BB5C
:100570000000000000000000809165009801280F35
:10058000311DF901E054FF4F808185BB0000000060
:100590000000000080916500F801E80FF11DE852AD
:1005A000FF4F808185BB00000000000000008091AB
:1005B00065009801280F311DF901E051FF4F80813E
:1005C00085BB000000000000000080916500F8017C
:1005D000E80FF11DE85FFE4F808185BB0000000041
:1005E00000000000809165009801280F311DF9017D
:1005F000E05EFE4F808185BB00000000000000002F
:1006000080916500F801E80FF11DE85CFE4F8081E4
:1006100085BB00000000000000008091650098018B
:10062000280F311DF901E05BFE4F808185BB000082
:1006300000000000000080916500F801E80FF11D46
:10064000E859FE4F808185BB0000000000000000DB
:10065000809165009801280F311DF901E058FE4F87
:10066000808185BB000000000000000080916500D3
:10067000F801E80FF11DE856FE4F808185BB0000B0
:10068000000000000000809165009801280F311DD6
:10069000F901E055FE4F808185BB0000000000009D
:1006A000000080916500F801E80FF11DE853FE4F4E
:1006B000808185BB00000000000000008091650083
:1006C0009801280F311DF901E052FE4F808185BB52
:1006D000000000000000000080916500F801E80FB4
:1006E000F11DE850FE4F808185BB00000000000036
:1006F0000000809165009801280F311DF901E05F2D
:10070000FD4F808185BB000000000000000080914B
:100710006500F801E80FF11DE85DFD4F808185BBA4
:100720000000000000000000809165009801280F83
:10073000311DF901E05CFD4F808185BB00000000A8
:100740000000000080916500F801E80FF11DE85AF3
:10075000FD4F808185BB00000000000000008091FB
:1007600065009801280F311DF901E059FD4F808186
:1007700085BB000000000000000080916500F801CA
:10078000E80FF11DE857FD4F808185BB0000000098
:1007900000000000809165009801280F311DF901CB
:1007A000E056FD4F808185BB000000000000000086
:1007B00080916500F801E80FF11DE854FD4F80813C
:1007C00085BB0000000000000000809165009801DA
:1007D000280F311DF901E053FD4F808185BB0000DA
:1007E00000000000000080916500F801E80FF11D95
:1007F000E851FD4F808185BB000000000000000033
:10080000809165009801280F311DF901E050FD4FDE
:10081000808185BB00000000000000008091650021
:10082000F801E80FF11DE85EFC4F808185BB0000F8
:10083000000000000000809165009801280F311D24
:10084000F901E05DFC4F808185BB000000000000E5
:10085000000080916500F801E80FF11DE85BFC4F96
:10086000808185BB000000000000000080916500D1
:100870009801280F311DF901E05AFC4F808185BB9A
:10088000000000000000000080916500F801E80F02
:10089000F11DE858FC4F808185BB0000000000007E
:1008A0000000809165009801280F311DF901E05783
:1008B000FC4F808185BB000000000000000080919B
:1008C0006500F801E80FF11DE855FC4F808185BBFC
:1008D000000000000000000015BA1092620085B709
:1008E000806885BF889585B78F7785BF68CD991B50
:1008F00079E004C0991F961708F0961B881F7A9517
:10090000C9F780950895AA1BBB1B51E107C0AA1F18
:10091000BB1FA617B70710F0A61BB70B881F991FA0
:0E0920005A95A9F780959095BC01CD010895D8
:02092E000700C0
:00000001FF
