:1000000012C02BC02AC029C028C027C026C025C0C6
:1000100024C024C022C021C020C01FC01EC01DC0DB
:100020001CC01BC01AC011241FBECFE5D4E0DEBF28
:10003000CDBF10E0A0E6B0E0ECE2FBE002C005902E
:100040000D92A236B107D9F710E0A2E6B0E001C0E8
:100050001D92A736B107E1F759C1D2CF1F920F9277
:100060000FB60F9211242F938F939F9381E982BF34
:100070008091630090916400019690936400809356
:1000800063008091630090916400883F910508F4BB
:100090008EC080916300909164008B3F910508F0C1
:1000A00086C015BA0000000000000000000000003B
:1000B0000000000000000000000000000000000040
:1000C0000000000000000000000000000000000030
:1000D0000000000000000000000000000000000020
:1000E0000000000000000000000000000000000010
:1000F0000000000000000000000000000000000000
:1001000000000000000000000000000000000000EF
:1001100000000000000000000000000000000000DF
:100120000000000087E085BB000000000000000028
:1001300000000000000000000000000000000000BF
:10014000000000000000000085BB0000000000006F
:10015000000000000000000000000000000000009F
:10016000000000000000000000000000000000008F
:10017000000000000000000000000000000000007F
:100180000000000000000000000085BB000000002F
:10019000000000000000000000000000000000005F
:1001A00000000000000000000000000076C087E0B2
:1001B00085BB0000000000000000000000000000FF
:1001C000000000000000000000000000000000002F
:1001D000000000000000000000000000000000001F
:1001E000000000000000000000000000000000000F
:1001F00000000000000000000000000000000000FF
:1002000000000000000000000000000000000000EE
:1002100000000000000000000000000000000000DE
:1002200000000000000000000000000000000000CE
:10023000000015BA000000000000000000000000EF
:1002400000000000000000000000000000000000AE
:100250000000000086E085BB0000000000000000F8
:10026000000000000000000000000000000000008E
:10027000000000000000000000000000000000007E
:10028000000000000000000000000000000000006E
:10029000000000000000000015BA809163009091FA
:1002A00064008750914031F481E090E090936400C5
:1002B0008093630080916300909164008093650057
:1002C000809165008E3160F0809165008E51809341
:1002D000650080916500869586958695809365007A
:1002E00081E0809362009F918F912F910F900FBEBC
:1002F0000F901F901895882311F08150F1F7089501
:100300009C01892F99278BBD2ABD0895C5E5D1E0B1
:10031000DEBFCDBF40E0C85FDC4F4883C850D3404C
:10032000AA24A394C75FDC4F18821982C950D34016
:10033000242EFE01ED5FFC4F108211821282138287
:100340008D9AA9BE83E882BF82E083BF80E28BBD25
:100350004ABD8FB580648FBDB99A8EB589608EBD58
:10036000A3BCBB9A89E185BD84B3876084BBC95FA8
:10037000DC4F4883C750D340A6E1B0E0BE016F5FB9
:100380007F4F40E0C95FDC4F8881C750D340282FA2
:100390003327842F99278A9FF0018B9FF00D9A9F16
:1003A000F00D1124CF01860F971FFC01E20FF31F00
:1003B00010824F5F433268F3C95FDC4FF881C7504A
:1003C000D340FF5FC95FDC4FF883C750D340F6319D
:1003D000C0F278943E010894611C711C8091620007
:1003E000882309F435C180916300909164008E3DAB
:1003F000910509F02DC1E3E0F3E0EC0FFD1FE20DE4
:10040000F11D85B18083239423E02222822D8B5F0E
:1004100087B93D9A86ED86B9CB5FDC4F8881C550A0
:10042000D340982F92959F70C85FDC4F8881C85049
:10043000D3408F5F692F47D3C85FDC4F9883C85084
:10044000D340CD5FDC4F8881C350D340982F929525
:100450009F7080E1A82EA91A0F2EF2E15F2EF02DD9
:10046000590ECC5FDC4F3880C450D34086B39927F7
:10047000847090709595879595958795482EC85F5F
:10048000DC4F3881C850D340332309F0DFC0C95F47
:10049000DC4F8881C750D3408F5F66E114D3C95FBA
:1004A000DC4F9883C750D340432F892E992406E10F
:1004B00010E0EE24FF24E394EC0EFD1E640108948A
:1004C000C11CD11CA41608F09CC0451508F099C0A9
:1004D000442009F496C0BB24842F9927809FB00143
:1004E000819F700D909F700D1124CB018E0D9F1D6B
:1004F000FC01E80DF91D8689882319F0BB24689456
:10050000B2F8842F9927809FF001819FF00D909F72
:10051000F00D1124CF018E0D9F1DFC01E80DF91D7A
:100520008081882311F0F2E0BF2A842F9927809FD1
:100530009001819F300D909F300D1124C9018E0DC7
:100540009F1D880D991DFC0176978081882311F0ED
:1005500031E0B32A832D992702C095958795BA94E7
:10056000E2F780FF3AC0C95FDC4F8881C750D340B3
:10057000602FA9D2242F3327209FB001219F700D17
:10058000309F700D11249B012E0D3F1DF901E90FC5
:10059000F11DB0808B2D8F5F65E095D2B92EB3949D
:1005A0008B2D9927C75FDC4F68817981C950D34073
:1005B000689FF001699FF00D789FF00D1124C75FCF
:1005C000DC4FE883F983C950D340C601B80187D214
:1005D000F901E80FF91FB08227C0C601B8017FD228
:1005E000242F3327209FF001219FF00D309FF00D25
:1005F00011249F012E0D3F1DF901E80FF91F1082F4
:1006000013C0C601B8016BD2242F3327209FB0013D
:10061000219F700D309F700D11249B012E0D3F1DE9
:10062000F901E80FF91F10824F5F423208F44ACFF8
:10063000C75FDC4F88819981C950D3400196C75F5D
:10064000DC4F88839983C950D3405ADE10926200F0
:1006500080916200882309F42EC2809163009091FA
:1006600064004F9708F427C2809163009091640062
:100670008E3C910508F01FC280916500F301E80FE0
:10068000F11D808185BB000000000000000000001B
:10069000000080916500F301E80FF11D868985BB9C
:1006A00000000000000000000000000080916500D4
:1006B000F301E80FF11D84A585BB000000000000D8
:1006C00000000000000080916500F301E80FF11DBB
:1006D000EE5BFF4F808185BB000000000000000042
:1006E00000000000809165009301280F311DF90181
:1006F000E85AFF4F808185BB000000000000000029
:100700000000000080916500B301680F711DFB01BE
:10071000E259FF4F808185BB00000000000000000F
:100720000000000080916500F301E80FF11DEC5717
:10073000FF4F808185BB000000000000000000002A
:100740000000809165009301280F311DF901E656E4
:10075000FF4F808185BB000000000000000000000A
:10076000000080916500B301680F711DFB01E05529
:10077000FF4F808185BB00000000000000000000EA
:10078000000080916500F301E80FF11DEA53FF4F6F
:10079000808185BB00000000000000000000000018
:1007A000809165009301280F311DF901E452FF4F3C
:1007B000808185BB000000000000000000000000F8
:1007C00080916500B301680F711DFB01EE50FF4F72
:1007D000808185BB000000000000000000000000D8
:1007E00080916500F301E80FF11DE85FFE4F808105
:1007F00085BB0000000000000000000000008091A8
:1008000065009301280F311DF901E25EFE4F8081E2
:1008100085BB000000000000000000000000809187
:100820006500B301680F711DFB01EC5CFE4F808118
:1008300085BB000000000000000000000000809167
:100840006500F301E80FF11DE65BFE4F808185BB7B
:100850000000000000000000000000008091650022
:100860009301280F311DF901E05AFE4F808185BBAD
:100870000000000000000000000000008091650002
:10088000B301680F711DFB01EA58FE4F808185BBE3
:1008900000000000000000000000000080916500E2
:1008A000F301E80FF11DE457FE4F808185BB000086
:1008B000000000000000000000008091650093012E
:1008C000280F311DF901EE55FE4F808185BB0000D8
:1008D0000000000000000000000080916500B301EE
:1008E000680F711DFB01E854FE4F808185BB00003D
:1008F0000000000000000000000080916500F3018E
:10090000E80FF11DE253FE4F808185BB000000001F
:100910000000000000000000809165009301280F96
:10092000311DF901EC51FE4F808185BB00000000B4
:10093000000000000000000080916500B301680F16
:10094000711DFB01E650FE4F808185BB0000000059
:10095000000000000000000080916500F301E80F36
:10096000F11DE05FFD4F808185BB000000000000AD
:10097000000000000000809165009301280F311DE8
:10098000F901EA5DFD4F808185BB00000000000099
:1009900000000000000080916500B301680F711D28
:1009A000FB01E45CFD4F808185BB0000000000007E
:1009B00000000000000080916500F301E80FF11DC8
:1009C000EE5AFD4F808185BB000000000000000052
:1009D00000000000809165009301280F311DF9018E
:1009E000E859FD4F808185BB000000000000000039
:1009F0000000000080916500B301680F711DFB01CC
:100A0000E258FD4F808185BB00000000000000001F
:100A10000000000080916500F301E80FF11DEC5625
:100A2000FD4F808185BB0000000000000000000039
:100A30000000809165009301280F311DF901E655F2
:100A4000FD4F808185BB0000000000000000000019
:100A5000000080916500B301680F711DFB01E05437
:100A6000FD4F808185BB00000000000000000000F9
:100A7000000080916500F301E80FF11DEA52FD4F7F
:100A8000808185BB00000000000000000000000025
:100A9000809165009301280F311DF901E451FD4F4C
:100AA000808185BB00000000000000000000000005
:100AB00015BA1092620085B7806885BF889585B7A2
:100AC0008F7785BF8BCC991B79E004C0991F96174F
:100AD00008F0961B881F7A95C9F78095089597FBB3
:100AE000092E07260AD077FD04D00CD006D00020AE
:100AF0001AF4709561957F4F0895F6F7909581955A
:100B00009F4F0895AA1BBB1B51E107C0AA1FBB1F23
:100B1000A617B70710F0A61BB70B881F991F5A9589
:0C0B2000A9F780959095BC01CD010895C7
:020B2C000700C0
:00000001FF
